{
  "_format": "hh-sol-artifact-1",
  "contractName": "BuyMeAChai",
  "sourceName": "contracts/BuyMeAChai.sol",
  "abi": [
    {
      "inputs": [],
      "stateMutability": "nonpayable",
      "type": "constructor"
    },
    {
      "anonymous": false,
      "inputs": [
        {
          "indexed": true,
          "internalType": "address",
          "name": "from",
          "type": "address"
        },
        {
          "indexed": false,
          "internalType": "uint256",
          "name": "timestamp",
          "type": "uint256"
        },
        {
          "indexed": false,
          "internalType": "string",
          "name": "name",
          "type": "string"
        },
        {
          "indexed": false,
          "internalType": "string",
          "name": "message",
          "type": "string"
        }
      ],
      "name": "NewMemo",
      "type": "event"
    },
    {
      "inputs": [
        {
          "internalType": "string",
          "name": "_name",
          "type": "string"
        },
        {
          "internalType": "string",
          "name": "_message",
          "type": "string"
        }
      ],
      "name": "buyChai",
      "outputs": [],
      "stateMutability": "payable",
      "type": "function"
    },
    {
      "inputs": [],
      "name": "getMemos",
      "outputs": [
        {
          "components": [
            {
              "internalType": "address",
              "name": "from",
              "type": "address"
            },
            {
              "internalType": "uint256",
              "name": "timestamp",
              "type": "uint256"
            },
            {
              "internalType": "string",
              "name": "name",
              "type": "string"
            },
            {
              "internalType": "string",
              "name": "message",
              "type": "string"
            }
          ],
          "internalType": "struct BuyMeAChai.Memo[]",
          "name": "",
          "type": "tuple[]"
        }
      ],
      "stateMutability": "view",
      "type": "function"
    },
    {
      "inputs": [],
      "name": "owner",
      "outputs": [
        {
          "internalType": "address payable",
          "name": "",
          "type": "address"
        }
      ],
      "stateMutability": "view",
      "type": "function"
    },
    {
      "inputs": [],
      "name": "withdrawTips",
      "outputs": [],
      "stateMutability": "nonpayable",
      "type": "function"
    }
  ],
  "bytecode": "0x608060405234801561001057600080fd5b5033600160006101000a81548173ffffffffffffffffffffffffffffffffffffffff021916908373ffffffffffffffffffffffffffffffffffffffff160217905550610d2b806100616000396000f3fe60806040526004361061003f5760003560e01c80633aaa74b2146100445780636a13d8591461005b578063865c5172146100775780638da5cb5b146100a2575b600080fd5b34801561005057600080fd5b506100596100cd565b005b6100756004803603810190610070919061060c565b61012f565b005b34801561008357600080fd5b5061008c6102a9565b6040516100999190610889565b60405180910390f35b3480156100ae57600080fd5b506100b761048c565b6040516100c491906108cc565b60405180910390f35b600160009054906101000a900473ffffffffffffffffffffffffffffffffffffffff1673ffffffffffffffffffffffffffffffffffffffff166108fc479081150290604051600060405180830381858888f1935050505061012d57600080fd5b565b60003411610172576040517f08c379a00000000000000000000000000000000000000000000000000000000081526004016101699061096a565b60405180910390fd5b600060405180608001604052803373ffffffffffffffffffffffffffffffffffffffff16815260200142815260200184815260200183815250908060018154018082558091505060019003906000526020600020906004020160009091909190915060008201518160000160006101000a81548173ffffffffffffffffffffffffffffffffffffffff021916908373ffffffffffffffffffffffffffffffffffffffff16021790555060208201518160010155604082015181600201908161023a9190610b96565b5060608201518160030190816102509190610b96565b5050503373ffffffffffffffffffffffffffffffffffffffff167fc56140e05f516509ae28110e0f72e17558a7561630dad2647c3ae87d986e365c42848460405161029d93929190610cb0565b60405180910390a25050565b60606000805480602002602001604051908101604052809291908181526020016000905b8282101561048357838290600052602060002090600402016040518060800160405290816000820160009054906101000a900473ffffffffffffffffffffffffffffffffffffffff1673ffffffffffffffffffffffffffffffffffffffff1673ffffffffffffffffffffffffffffffffffffffff16815260200160018201548152602001600282018054610360906109b9565b80601f016020809104026020016040519081016040528092919081815260200182805461038c906109b9565b80156103d95780601f106103ae576101008083540402835291602001916103d9565b820191906000526020600020905b8154815290600101906020018083116103bc57829003601f168201915b505050505081526020016003820180546103f2906109b9565b80601f016020809104026020016040519081016040528092919081815260200182805461041e906109b9565b801561046b5780601f106104405761010080835404028352916020019161046b565b820191906000526020600020905b81548152906001019060200180831161044e57829003601f168201915b505050505081525050815260200190600101906102cd565b50505050905090565b600160009054906101000a900473ffffffffffffffffffffffffffffffffffffffff1681565b6000604051905090565b600080fd5b600080fd5b600080fd5b600080fd5b6000601f19601f8301169050919050565b7f4e487b7100000000000000000000000000000000000000000000000000000000600052604160045260246000fd5b610519826104d0565b810181811067ffffffffffffffff82111715610538576105376104e1565b5b80604052505050565b600061054b6104b2565b90506105578282610510565b919050565b600067ffffffffffffffff821115610577576105766104e1565b5b610580826104d0565b9050602081019050919050565b82818337600083830152505050565b60006105af6105aa8461055c565b610541565b9050828152602081018484840111156105cb576105ca6104cb565b5b6105d684828561058d565b509392505050565b600082601f8301126105f3576105f26104c6565b5b813561060384826020860161059c565b91505092915050565b60008060408385031215610623576106226104bc565b5b600083013567ffffffffffffffff811115610641576106406104c1565b5b61064d858286016105de565b925050602083013567ffffffffffffffff81111561066e5761066d6104c1565b5b61067a858286016105de565b9150509250929050565b600081519050919050565b600082825260208201905092915050565b6000819050602082019050919050565b600073ffffffffffffffffffffffffffffffffffffffff82169050919050565b60006106db826106b0565b9050919050565b6106eb816106d0565b82525050565b6000819050919050565b610704816106f1565b82525050565b600081519050919050565b600082825260208201905092915050565b60005b83811015610744578082015181840152602081019050610729565b60008484015250505050565b600061075b8261070a565b6107658185610715565b9350610775818560208601610726565b61077e816104d0565b840191505092915050565b60006080830160008301516107a160008601826106e2565b5060208301516107b460208601826106fb565b50604083015184820360408601526107cc8282610750565b915050606083015184820360608601526107e68282610750565b9150508091505092915050565b60006107ff8383610789565b905092915050565b6000602082019050919050565b600061081f82610684565b610829818561068f565b93508360208202850161083b856106a0565b8060005b85811015610877578484038952815161085885826107f3565b945061086383610807565b925060208a0199505060018101905061083f565b50829750879550505050505092915050565b600060208201905081810360008301526108a38184610814565b905092915050565b60006108b6826106b0565b9050919050565b6108c6816108ab565b82525050565b60006020820190506108e160008301846108bd565b92915050565b600082825260208201905092915050565b7f43616e2774206275792061206368616920666f722066726565212053656e642060008201527f736f6d6520455448000000000000000000000000000000000000000000000000602082015250565b60006109546028836108e7565b915061095f826108f8565b604082019050919050565b6000602082019050818103600083015261098381610947565b9050919050565b7f4e487b7100000000000000000000000000000000000000000000000000000000600052602260045260246000fd5b600060028204905060018216806109d157607f821691505b6020821081036109e4576109e361098a565b5b50919050565b60008190508160005260206000209050919050565b60006020601f8301049050919050565b600082821b905092915050565b600060088302610a4c7fffffffffffffffffffffffffffffffffffffffffffffffffffffffffffffffff82610a0f565b610a568683610a0f565b95508019841693508086168417925050509392505050565b6000819050919050565b6000610a93610a8e610a89846106f1565b610a6e565b6106f1565b9050919050565b6000819050919050565b610aad83610a78565b610ac1610ab982610a9a565b848454610a1c565b825550505050565b600090565b610ad6610ac9565b610ae1818484610aa4565b505050565b5b81811015610b0557610afa600082610ace565b600181019050610ae7565b5050565b601f821115610b4a57610b1b816109ea565b610b24846109ff565b81016020851015610b33578190505b610b47610b3f856109ff565b830182610ae6565b50505b505050565b600082821c905092915050565b6000610b6d60001984600802610b4f565b1980831691505092915050565b6000610b868383610b5c565b9150826002028217905092915050565b610b9f8261070a565b67ffffffffffffffff811115610bb857610bb76104e1565b5b610bc282546109b9565b610bcd828285610b09565b600060209050601f831160018114610c005760008415610bee578287015190505b610bf88582610b7a565b865550610c60565b601f198416610c0e866109ea565b60005b82811015610c3657848901518255600182019150602085019450602081019050610c11565b86831015610c535784890151610c4f601f891682610b5c565b8355505b6001600288020188555050505b505050505050565b610c71816106f1565b82525050565b6000610c828261070a565b610c8c81856108e7565b9350610c9c818560208601610726565b610ca5816104d0565b840191505092915050565b6000606082019050610cc56000830186610c68565b8181036020830152610cd78185610c77565b90508181036040830152610ceb8184610c77565b905094935050505056fea26469706673582212202e003ddf385f4bb6fc61541aa8863d897230afeb2b7bfb0175625bccccd84f8e64736f6c63430008130033",
  "linkReferences": {},
  "deployedLinkReferences": {}
}